:020000040800F2
:1000000020090020290200081F1D0008B91A000855
:100010001D1D00081F0400085923000800000000EF
:10002000000000000000000000000000231D000888
:10003000CD04000800000000211D0008251D000857
:10004000430200084302000843020008430200087C
:10005000430200084302000843020008430200086C
:10006000430200084302000843020008430200085C
:10007000430200084302000843020008430200084C
:10008000430200084302000843020008430200083C
:10009000430200084302000843020008430200082C
:1000A000430200084302000843020008430200081C
:1000B000430200084302000843020008430200080C
:1000C00043020008430200084302000843020008FC
:1000D00043020008412300084302000843020008CD
:1000E00043020008430200084302000843020008DC
:1000F00043020008430200084302000843020008CC
:1001000043020008430200084302000843020008BB
:1001100043020008430200084302000843020008AB
:1001200043020008210400082D04000843020008CF
:100130004302000800000000000000004302000825
:10014000430200084302000843020008430200087B
:100150004302000839040008450400084D23000844
:10016000430200084302000843020008430200085B
:1001700043020008430200080000000000000000E5
:10018000430200084302000800F002F800F03CF8C7
:100190000AA090E8000C82448344AAF10107DA45E2
:1001A00001D100F031F8AFF2090EBAE80F0013F0F8
:1001B000010F18BFFB1A43F0010318472423000066
:1001C00044230000103A24BF78C878C1FAD85207F7
:1001D00024BF30C830C144BF04680C6070470000C1
:1001E0000023002400250026103A28BF78C1FBD840
:1001F000520728BF30C148BF0B6070471FB502F0DF
:1002000059F91FBD10B510BD00F0CFF81146FFF72A
:10021000F5FF02F0E1F800F0EDF803B4FFF7F2FFAC
:1002200003BC00F0F5F80000094880470948004782
:10023000FEE7FEE7FEE7FEE7FEE7FEE7FEE7FEE796
:10024000FEE7FEE704480549054A064B70470000F3
:10025000BD1D00088901000820030020200900209E
:10026000200500202005002053EA020C00F06980E0
:100270002DE9F04B4FF00006002B1FBFB3FA83F5BA
:1002800003FA05F424FA05F65E4012BF1643B2FAEB
:1002900082F502FA05F4C5F120051EBF22FA05FC1D
:1002A00044EA0C04203556EA044C4FEA144418BFC3
:1002B000641C4FF000084FF00009904271EB030CF2
:1002C00039D3002919BFB1FA81F701FA07F6B0FA5C
:1002D00080F700FA07F6C7F120071EBF20FA07FCD7
:1002E00046EA0C062037B6FBF4FCA7EB0507103FE7
:1002F00007F01F0BCBF120060CFA0BFB2CFA06F6CD
:1003000044BFB3460026202FA4BF5E464FF0000B2B
:100310005BEA060C08BF4FF0010B19EB0B09ABFBB6
:10032000027C48EB0608C01B06FB02CC0BFB03CC8F
:1003300071EB0C01C1E70B46024641464846BDE859
:10034000F08B13B54FF000004FF00001AFF30080C9
:10035000BDE81C4070474FF0000200B513469446BC
:100360009646203922BFA0E80C50A0E80C50B1F10D
:100370002001BFF4F7AF090728BFA0E80C5048BF21
:100380000CC05DF804EB890028BF40F8042B08BFBF
:10039000704748BF20F8022B11F0804F18BF00F8BB
:1003A000012B7047704770477047754600F02CF876
:1003B000AE4605006946534620F00700854618B052
:1003C00020B5FFF73FFFBDE820404FF000064FF09B
:1003D00000074FF000084FF0000B21F00701AC467A
:1003E000ACE8C009ACE8C009ACE8C009ACE8C00999
:1003F0008D46704710B50446AFF300802046BDE837
:100400001040FFF70ABF000000487047BC02002000
:1004100001491820ABBEFEE7260002007047FEE748
:10042000014800F0B1B80000FC010020014800F0D4
:10043000ABB800003C010020014800F0A5B8000066
:100440005C020020014800F09FB800009C010020E1
:1004500001681823CAB2103AB2FBF3F2054B6FF3EE
:100460000901032A9B5CC36500D9091D8165084603
:1004700070470000BE24000810B5014600208B69BB
:100480008A6A4FF0C07453B1B3F5005F15D072B1F2
:10049000012A0CD0022A0AD0032A09D104E01AB199
:1004A000012A06D0022A03D1C96AC90100D5012058
:1004B00010BDC96AA142FAD010BD002AF7D0012AA6
:1004C000F2D0022AF3D0032AF3D010BD704772B6DF
:1004D000FEE72DE9F0410446876D00F0A7FA0646D5
:1004E00094F835000025022806D08020606584F845
:1004F00034500120BDE8F0812068016821F0160128
:1005000001602068416921F080014161206C08B9D7
:10051000A06C20B12068016821F00801016020680A
:10052000016821F0010101600CE000F07FFA801BFE
:10053000052807D920206065032084F8350084F859
:100540003450D7E720680068C007EED194F85C10FB
:100550003F208840B860012084F8350084F834508A
:100560000020C7E790F83510022903D080214165AB
:1005700001207047052180F835100068016821F0DE
:1005800001010160002070472DE9F84304464FF057
:100590000009CDF8009063484FF41651A56D00682E
:1005A000B0FBF1F72E6894F85C10082000FA01F116
:1005B00031420FD021680A6852070BD50A6822F031
:1005C00004020A6094F85C108840A860606D40F0F6
:1005D0000100606594F85C104FF0010808FA01F022
:1005E000304208D021684969090604D5A860606DC9
:1005F00040F00200606594F85C10042088403042AE
:1006000008D021680968890704D5A860606D40F0AA
:100610000400606594F85C1010208840304218D0C7
:1006200021680968090714D5A86020680168490392
:1006300004D50068000308D5A16C07E00168C9056E
:1006400003D4016821F008010160216C09B1204642
:10065000884794F85C1020208840304231D02168CF
:100660000968C9062DD5A86094F8350005282068CA
:10067000016806D0490347D5006800031DD4616CAA
:100680001CE021F0160101602068416921F0800121
:100690004161206C08B9A06C20B12068016821F08C
:1006A0000801016094F85C103F208840A86084F83D
:1006B000358084F83490216D1FE0E16B09B120464C
:1006C0008847606D00282BD0606DC00714D00520CE
:1006D00084F835002068016821F00101016000986C
:1006E000401C0090B84203D820680068C007F6D1CB
:1006F00084F8358084F83490E16C002910D001B082
:100700002046BDE8F04308470168C905D5D4016813
:1007100021F01001016084F8358084F83490CCE732
:10072000BDE8F883200000202DE9F041044600F0E8
:100730007DF906465CB1022084F83500002584F876
:1007400034502068016821F0010101600DE00120B2
:10075000BDE8F08100F06AF9801B052805D920204A
:100760006065032084F83500F2E720680068C00760
:10077000F0D12268116820480140D4E901031843F0
:10078000D4E903363343184363691843A369184314
:10079000E3691843236A18430843616A042903D1B3
:1007A000D4E90B1319430843106020684069666A56
:1007B00020F0070130460E43012704280CD1A06A1F
:1007C0000643E06A40B12046FFF756FE20B14020C4
:1007D000606584F83570BAE7206846612046FFF707
:1007E00037FE94F85C203F2191408160656584F874
:1007F00035700020ACE700003F8010F070B5044673
:1008000000F014F90546601C02D004480078044446
:1008100000F00CF9401BA042FAD370BD1400002078
:100820002DE9F84FDFF8BCA10022012503264FF087
:100830000F090AF1040BAAF1040E00BF0B6805FAB8
:1008400002F42340A34270D10F7907F00307012F70
:1008500001D0022F16D187684FEA420806FA08FC39
:1008600027EA0C07D1F80CC00CFA08FC4CEA070C7C
:10087000C0F808C04768A7430C79C4F3001494403B
:100880003C4344600C79E443A4070AD0C4684FEAAF
:10089000420C06FA0CF7BC438F6807FA0CF72743A3
:1008A000C7600C7904F00304022C12D1D40800EBC9
:1008B000840CDCF820405707FF0E09FA07F824EAF9
:1008C0000804D1F8108008FA07F848EA0408CCF8C0
:1008D000208004684FEA420C06FA0CF7BC430F79FB
:1008E00007F0030707FA0CF7274307604C6814F476
:1008F000403F70D03C4C276847F48047276024680D
:1009000022F0030704F480440094384C07EB040CF5
:10091000DCF8084897074FEA177809FA08F7BC434C
:10092000334FB84202D1002724E054E0314FB8429F
:1009300001D101271EE0304FB84201D1022719E052
:100940002E4FB84201D1032714E02D4FB84201D1F8
:1009500004270FE02B4FB84201D105270AE02A4FA8
:10096000B84201D1062705E0284FB84201D1072738
:1009700000E0082707FA08F72743CCF80878DAF8E8
:1009800000405746D1F804C09C435FEACC2C00D508
:100990001C433C60DBF800405F46D1F804C09C4338
:1009A0005FEA8C2C00D51C433C60DEF800407746A3
:1009B000D1F804C09C435FEA8C3C00D51C433C60EA
:1009C000084F083F3C68D1F804C09C435FEACC3C28
:1009D00000D51C433C60521C102AFFF42FAFBDE829
:1009E000F88F0000083C01404438024000300140CC
:1009F000000002400004024000080240000C0240D7
:100A0000001002400014024000180240001C024086
:100A1000426921EA02030A4043EA024181617047C8
:100A20000AB1816170470904FBE700000148806852
:100A300070470000140000200248816802781144C9
:100A400081607047140000200B4810B5016841F424
:100A500000710160016841F480610160016841F446
:100A600080710160032000F06FF80F2000F006F89D
:100A700000F024F8002010BD003C024070B50D4D80
:100A800004464FF47A712878B1FBF0F00A490968FE
:100A9000B1FBF0F000F00AFB48B9102C07D200229D
:100AA0002146501E00F030F800206C6070BD01201F
:100AB00070BD000014000020200000200A4808B586
:100AC000016841F480410160006800F480400090BA
:100AD0000548001F016841F080510160006800F086
:100AE0008050009008BD000044380240002809DB17
:100AF00000F01F02012191404009800000F1E02038
:100B0000C0F8001170470000F0B40E4B1B680C4693
:100B1000C3F30223C3F10705042D00D90425191DD1
:100B2000072901D2002300E0DB1E012606FA05F1A9
:100B3000491E214099409E40761E16403143F0BC2C
:100B400001F00BBC0CED00E0064900F0070208685C
:100B50004FF6FF03184040EA0220034A10430860A2
:100B6000704700000CED00E00000FA052DE9F047A9
:100B70000E46050065D0DFF81481D8F80000F7B202
:100B800000F00700B04207D288F80070D8F80000E3
:100B900000F00700B04254D128683D4C810712D5BF
:100BA000400703D5206840F4E05020602878000713
:100BB00003D5206840F4604020602068A96820F0D8
:100BC000F000084320602878C0072DD030496868BD
:100BD0000839012812D0022813D0032811D009683F
:100BE000890700292DDA216821F0030101432160E2
:100BF000FFF71CFF814641F2883A0EE0096889033D
:100C0000EFE709688901ECE7FFF710FFA0EB0901A6
:100C1000514502D90320BDE8F0872068696800F0DB
:100C20000C00B0EB810FEFD1D8F80010404601F076
:100C30000701B14207D90770006800F00700B04211
:100C400001D00120E7E72878400705D52068E9684A
:100C500020F4E050084320602878000706D520687B
:100C6000296920F4604040EAC100206000F038F8B3
:100C70002168084AC1F30311515CC8400649086065
:100C800006480068FFF7FAFE0020C4E7003C024077
:100C900008380240C6240008200000201800002068
:100CA0000448054900680968044AC1F38221515C7F
:100CB000C84070472000002008380240D6240008B1
:100CC0000448054900680968044AC1F34231515C8F
:100CD000C84070472000002008380240D624000891
:100CE000154810B5006810F00C02144813D04110DC
:100CF000042A0FD0082A0ED10F4C241F2268236823
:100D000002F03F025B0207D52068C0F38810A0FB09
:100D1000010106E0084610BD2168C1F38811A1FB5E
:100D200000010023FFF7A0FA2168C1F30141491C2B
:100D30004900B0FBF1F010BD083802400024F40077
:100D40002DE9F84F04006ED02078DFF84C93C007EF
:100D5000A9F104054AD009F104000168C1F3810139
:100D6000012908D00068C0F3810002280AD1D9F80F
:100D70000000400206D52868800337D56068002847
:100D8000E1D033E06068B0F5803F10D0B0F5A02F1F
:100D9000286810D020F480302860286820F4802053
:100DA00028606068A8B1FFF741FE06460DE028689C
:100DB00040F48030F4E740F480202860F7E700BF7B
:100DC000FFF734FE801B642873D828688003F7D5AA
:100DD0000CE0FFF72BFE064605E000BFFFF726FEFE
:100DE000801B6428F0D828688003F7D42078DFF8C7
:100DF000AC8280074FF0000A3ED5A748001D01686D
:100E000011F00C0F08D00068C0F3810002280BD14C
:100E1000D9F80000400207D42868800716D5E0689A
:100E2000012800D112E033E1E068B8B10120C8F830
:100E30000000FFF7FBFD064605E000BFFFF7F6FDEB
:100E4000801B0228C0D828688007F7D52868216948
:100E500020F0F80040EAC10028600DE0C8F800A0CA
:100E6000FFF7E4FD064604E0FFF7E0FD801B0228E3
:100E70001FD828688007F7D42078000722D5864F2E
:100E800087486169703771B101210160FFF7CEFDBC
:100E9000064604E0FFF7CAFD801B022809D838681F
:100EA0008007F7D50EE0C0F800A0FFF7BFFD0646AB
:100EB00005E082E0FFF7BAFD801B02287DD8386884
:100EC0008007F7D42078400768D5DFF8CCB1002739
:100ED0000BF13C0BDBF80000C0000BD4DBF800107A
:100EE00041F08051CBF80010DBF80000012700F042
:100EF000805000906B4E3068C00510D4306840F4CC
:100F000080703060FFF792FD009005E0FFF78EFDE6
:100F10000099401A022850D83068C005F6D55E4EB8
:100F2000A0686C3601280FD00528306810D020F05A
:100F300001003060306820F004003060A068B8B173
:100F4000FFF774FD00900FE0306840F00100F4E717
:100F500040F004003060F7E7FFF768FD0099411AA0
:100F600041F28830814266D830688007F4D50EE0BF
:100F7000FFF75CFD009007E0FFF758FD0099411A6C
:100F800041F28830814256D830688007F4D42FB1BE
:100F9000DBF8001021F08051CBF80010A069C8B335
:100FA0003D49091D0968C1F3810102294AD002287F
:100FB000504607D0C8F8600000E03CE0FFF736FD7F
:100FC00004463BE04746C8F86000FFF72FFD0646A1
:100FD00005E000BFFFF72AFD801B02282BD82868F8
:100FE0008001F7D4D4E907010843A16A2E4A4908D1
:100FF00002EB0141626A41EA8211084394F82C1025
:1010000040EA0161C9F8001001203866FFF70EFDC3
:10101000044606E03EE000BFFFF708FD001B022883
:1010200009D828688001F7D534E000BFFFF7FEFC3F
:10103000001B022802D90320BDE8F88F2868800130
:10104000F4D427E00128F7D0D9F80000E26900F4D1
:10105000800191421CD1226A00F03F01914217D1D8
:1010600047F6C071626A0140B1EB821F10D1A26ADB
:101070004FF0FF3300F4403103EB5202B1EB024F6B
:1010800006D194F82C1000F07060B0EB016F01D025
:101090000120D1E70020CFE704380240000047429A
:1010A000800E4742007000400000FFFF10B5401E58
:1010B000B0F1807F01D3012010BD4FF0E0246061CA
:1010C0000F21601701F049F90020A061072020617D
:1010D000002010BD70B590F83C20012A32D00124C8
:1010E00080F83C40022280F83D2003685A689D68E1
:1010F00022F070060A6832435A60134B02689A4223
:1011000014D0B2F1804F11D0104B9A420ED0104B38
:101110009A420BD00F4B9A4208D00F4B9A4205D0FF
:101120000E4B9A4202D00E4B9A4204D1496825F0E8
:1011300080031943916080F83D40002180F83C1005
:10114000084670BD022070BD000001400004004050
:1011500000080040000C0040000401400040014035
:101160000018004010B5040003D094F83D0010B101
:1011700007E0012010BD002084F83C00204600F06C
:101180001FF8022084F83D00211D206800F01EFE9B
:10119000012084F8460084F83E0084F83F0084F87B
:1011A000400084F8410084F8420084F8430084F849
:1011B000440084F8450084F83D00002010BD000084
:1011C00008B50C4A01680C48914207D1016841F00A
:1011D00020010160006800F0200009E0074A914208
:1011E00007D1016841F040010160006800F0400053
:1011F000009008BD00140040403802400018004034
:1012000070B5044690F83C000025012817D001264F
:1012100084F83C60022084F83D002068826822F057
:10122000770222F47F4282600868502838D00DDCB3
:1012300020284FD005DC90B3102811D14AE00220BD
:1012400070BD302846D040280AD13BE060282FD01E
:1012500070280DD0B0F5805F03D0B0F5005F12D0DC
:10126000012584F83D60002084F83C00284670BDCC
:10127000CB68D1E90121206800F019FE206881685F
:1012800041F0770109E0CB68D1E90121206800F045
:101290000EFE2068816841F480418160E1E719E039
:1012A000CA684968206800F0D7FE5021206806E02F
:1012B000CA684968206800F0E0FE6021206800F0FC
:1012C00000FECEE7CA684968206800F0C5FE4021EC
:1012D0002068F4E7226801461046F0E710B586B0B2
:1012E000044614216846FFF736F80E492068884204
:1012F00016D10D480021026842F002020260006827
:1013000000F0020005904FF4804000900220CDE9EB
:1013100001010920CDE9031069460448FFF780FA6E
:1013200006B010BD001800403038024000040240F2
:1013300070B5044690F83C0000260D4601280FD0F9
:10134000012084F83C006AB1042A1DD0082A2FD05D
:101350000C2A3FD00126002084F83C00304670BDA6
:10136000022070BD206800F0B5FD2068816941F061
:10137000080181612068816921F004018161206890
:1013800081692A69114311E0206800F0D3FD2068CB
:10139000816941F4006181612068816921F4806183
:1013A0008161206881692A6941EA02218161D2E76D
:1013B000206800F0F5FD2068C16941F00801C161B5
:1013C0002068C16921F00401C1612068C1692A69EE
:1013D000114311E0206800F017FE2068C16941F454
:1013E0000061C1612068C16921F48061C161206828
:1013F000C1692A6941EA0221C161ACE710B5040064
:1014000003D094F83D0010B107E0012010BD00208A
:1014100084F83C00204600F01EF8022084F83D00CD
:10142000211D206800F0D2FC012084F8460084F8D9
:101430003E0084F83F0084F8400084F8410084F8BE
:10144000420084F8430084F8440084F8450084F89E
:101450003D00002010BD704710B50446022249B17E
:1014600004290ED0082913D094F84100012816D081
:10147000012010BD94F83E000128F9D184F83E20E7
:101480000FE094F83F000128F2D184F83F2008E0F3
:1014900094F840000128EBD184F8402001E084F862
:1014A00041200122206800F0F5FC16492068164A08
:1014B000884201D0904203D1436C43F4004343641B
:1014C0002068884213D0B0F1804F10D00F49884275
:1014D0000DD00F4988420AD00E49884207D0904269
:1014E00005D00D49884202D00C49884204D1816858
:1014F00001F00701062903D0016841F001010160F4
:10150000002010BD00000140000401400004004024
:1015100000080040000C004000400140001800405E
:1015200030B504460D460068002200F0B3FC194BAC
:1015300041F2111120688A10984202D0164B98424D
:1015400009D1036A0B4206D1036A134203D1436CEB
:1015500023F4004343642068036A0B4206D1016A06
:10156000114203D1016821F00101016001203DB168
:10157000042D08D0082D09D084F84100002030BD8A
:1015800084F83E00FAE784F83F00F7E784F840006B
:10159000F4E700000000014000040140704770477C
:1015A000F8B5016804460868CA684B6910F00F0F67
:1015B0004FF0000559D003F0010602F4907737434D
:1015C00065D0C10705D0D10503D5216C41F00101DB
:1015D0002164410705D5D90703D0216C41F00201F0
:1015E0002164810705D5D90703D0216C41F004019E
:1015F0002164010707D502F02001314303D0216C9B
:1016000041F008012164216C00293AD0800604D5FC
:10161000900602D5204600F071FD20684069216CDB
:10162000C0F38010090700D460B3204600F03FFDEE
:1016300020684069400621D52068143050E8001F1A
:1016400021F0400140E80012002AF5D1A06BA8B1BA
:101650006C490165A06BFEF785FF002811D0A06BD7
:10166000016D01B0BDE8F040084783060FD5930631
:101670000DD52046BDE8F84000F040BD2046FFF7FC
:101680008EFFF8BD2046FFF78AFF2564F8BD266B64
:101690002023012E79D1C60677D5D60675D50868E0
:1016A000486800904869400640D5A16B08684068CA
:1016B0000004000CEAD0A28D8242E7D9E085C86917
:1016C000B0F5807F2DD020680C3050E8001F21F449
:1016D000807140E80012002AF5D12068143050E8EB
:1016E000001F21F0010140E80012002AF5D1206816
:1016F000143050E8001F21F0400140E80012002A99
:10170000F5D184F83E30256320680C3050E8001F86
:1017100021F0100140E80012002AF5D1A06BFEF77D
:10172000D8FEA08DE18D401A81B229E0A08DE18D17
:10173000401A81B2E08D0028A8D00029A6D02068E8
:101740000C3050E8002F22F4907240E80026002E62
:10175000F5D12068143050E8002F22F0010240E853
:101760000026002EF5D184F83E30256320680C3029
:1017700050E8002F22F0100240E80023002BF5D1A2
:101780002046FFF70BFFF8BDFFE705062BD5150632
:1017900029D594F83D002128F5D1A068B0F5805FE7
:1017A00001D12069B0B1206A411C21622168007812
:1017B0004860E08C401E0004000CE084E3D1206807
:1017C000C16821F08001C1602068C16841F040011A
:1017D000C160D8E7206A0088C0F308004860206A2A
:1017E000801C2062E5E74006CDD55006CBD5CA68FF
:1017F000204622F04002CA6084F83D3000F05BF9D8
:10180000C1E700009F20000870B5040004D094F8E0
:101810003D00002510B106E0012070BD84F83C5069
:10182000204600F023F8242084F83D002068C16899
:1018300021F40051C160204600F0C0FC206801691D
:1018400021F4904101612068416921F02A01416140
:101850002068C16841F40051C1602564202084F8EB
:101860003D0084F83E00002070BD00002DE9F047E7
:1018700086B0044614216846FEF76DFD5948DFF82E
:1018800060C1143827685749022203230025061532
:101890004FF480794FF0400A67454BD10F6847F00D
:1018A00010070F60096801F010010591016841F00F
:1018B000010101600068694600F0010005905802CE
:1018C0008DE825000720CDE903304748FEF7A8FF43
:1018D000474F46484FF000683860C7E90185C7E9BF
:1018E00003567D61C7E906593D6238467D62FEF7C1
:1018F0001BFF08B1FEF7EBFDA763BC633C4F3B4801
:1019000060377830C7E903567D61BD61FD613D6296
:101910007D6287E801053846FEF706FF08B1FEF74D
:10192000D6FD6763002211462520BC63FFF7ECF863
:1019300025204FE0DFF8BCC067454DD10F6847F068
:1019400020070F60096801F020010591016841F04E
:10195000040101600068694600F004000590C020A1
:101960008DE825000820CDE903302348FEF758FF15
:101970001F4F1E48C037183838604FF02068C7E93D
:101980000185C7E903567D61C7E906593D623846BE
:101990007D62FEF7C9FE08B1FEF799FDA763BC633F
:1019A000164F1248C7E903567D61BD61FD613D6276
:1019B00060307D6287E801053846FEF7B5FE08B164
:1019C000FEF785FD6763002211464720BC63FFF7E1
:1019D0009BF84720FFF78AF806B0BDE8F0870000C3
:1019E00000100140443802400000024040640240C0
:1019F0003C01002000140140000802405C0200206D
:101A0000704700002DE9F843044690F83D001F465A
:101A100016460D4620284CD1C5B1BEB194F83C0005
:101A2000012846D0012084F83C004FF00008C4F89B
:101A30004080212084F83D00FEF7F8FFA68481460F
:101A4000E684A068B0F5805F03D004E00120BDE823
:101A5000F883206928B12E465FF0000584F83C80A9
:101A60000EE00026FAE78021204600F02DFCA0B908
:101A7000AEB116F8010B21684860E08C401EE0848E
:101A8000E08C4B464FF0000200970028EBD14FF05E
:101A90004001204600F018FC30B10320D7E735F8AC
:101AA000020BC0F30800E6E7202084F83D00002088
:101AB000CDE70220CBE77047FEE70000154808B5E8
:101AC000016841F4800101600068002200F4800098
:101AD000009011463920FFF717F83920FFF706F874
:101AE000002211463A20FFF70FF83A20FEF7FEFFDA
:101AF000002211464520FFF707F84520FEF7F6FFC4
:101B0000002211464620FEF7FFFFBDE808404620B0
:101B1000FEF7ECBF303802402DE9F04387B01421C6
:101B20006846FEF718FC2B480024016841F00401C8
:101B30000160016801F004010591016841F0800134
:101B40000160016801F080010591016841F0020126
:101B50000160016801F002010591016841F0010195
:101B6000016000681C4F00F001004FF461450590D2
:101B7000002229463846FEF753FFDFF86080BE1585
:101B8000002231464046FEF74BFFDFF8549000221A
:101B900010214846FEF744FF00950125CDE9015488
:101BA000694638460394FEF73BFE0096CDE90154A2
:101BB000694640460394FEF733FE10200090CDE9BD
:101BC0000154694648460394FEF72AFE07B0BDE873
:101BD000F08300003038024000080240000002405C
:101BE0000004024010B58CB00024079408940994B6
:101BF0001C2168460A94FEF7AEFB1A48184901609A
:101C000044F29F11C0E901140921C0E90314846161
:101C1000FFF7A8FA08B1FEF75AFC4FF4805007907E
:101C200007A91048FFF7ECFA08B1FEF750FC0D4881
:101C3000FFF7E4FB08B1FEF74AFC602000900520A6
:101C4000CDE901040022694606480494FFF770FBC1
:101C500008B1FEF73CFC0348FFF740FB0CB010BD99
:101C6000001800406C0000201CB500240E480094B1
:101C70000C49019401605321C0E9011442F20F7133
:101C80008461C160FFF76EFA08B1FEF720FC009492
:101C9000694605480194FFF71DFA002801D0FEF7B8
:101CA00016FC1CBD00140040240000200C4810B598
:101CB0000A4901604FF4E1314160002181600C224A
:101CC000C160C0E904128161C161FFF79DFD002878
:101CD00003D0BDE81040FEF7FABB10BD0010014074
:101CE000B40000200C4810B50A4901604FF4E131FE
:101CF0004160002181600C22C160C0E90412816151
:101D0000C161FFF781FD002803D0BDE81040FEF758
:101D1000DEBB10BD00140140F8000020FEE7FEE726
:101D200070477047FEF788BE30B593B030216846E3
:101D3000FEF711FB14210CA8FEF70DFB1D48002532
:101D4000016841F080510160006800F080501190FE
:101D50001948016841F4804101600068022400F4E0
:101D60008040119001200090000401908001CDE995
:101D7000064008AA0420A82182E813000B906846B8
:101D8000FEF7DEFF08B172B6FEE70CA90F2081E86E
:101D900031004FF4A0500F904FF480501090052167
:101DA0000CA8FEF7E3FE002801D072B6FEE713B0E0
:101DB00030BD000040380240007000400248016819
:101DC00041F470010160704788ED00E0F0B50268F1
:101DD000254C264D264E274F274B4FF0804CA042D6
:101DE00009D0604507D0A84205D0B04203D0B84220
:101DF00001D0984204D122F0700E4A6842EA0E02E5
:101E0000A0421BD0604519D0A84217D0B04215D0CF
:101E1000B84213D0984211D0184DA8420ED0184D98
:101E2000A8420BD0174DA84208D0174DA84205D0A4
:101E3000164DA84202D0164DA84203D122F4407597
:101E4000CA682A434D6922F080022A4302608A68E8
:101E5000C2620A688262A04201D0984201D1096937
:101E6000016301214161F0BD000001400004004018
:101E700000080040000C0040000401400040014008
:101E8000004401400048014000180040001C004090
:101E90000020004010B501F01F030121046A9940A1
:101EA0008C430462016A9A401143016210BD10B56F
:101EB000846842EA032224F47F440A432243826076
:101EC00010BD826822F070020A4342F0070181606F
:101ED00070470000F0B5026A22F001020262036A54
:101EE00042688469124E24F073050C682C4323F079
:101EF00002058B682B430D4DA84201D0B04205D19D
:101F000023F00807CB683B4323F00403A84201D029
:101F1000B04205D14D6922F4407215438A692A43C3
:101F200042608461496841630362F0BD0000014082
:101F300000040140F0B5026A22F010020262026A57
:101F4000436884690D6824F4E64444EA05248D68F6
:101F500022F0200242EA05120F4D104EA84201D095
:101F6000B04206D1CF6822F0800242EA071222F086
:101F70004002A84201D0B04207D14D6923F440632A
:101F800043EA85038D6943EA8503436084614968B8
:101F900081630262F0BD00000000014000040140C6
:101FA000F0B5026A22F480720262026A4368C46970
:101FB00022F4007224F073050C68124E2C438D68D5
:101FC00042EA05220E4DA84201D0B04206D1CF68A8
:101FD00022F4006242EA072222F48062A84201D081
:101FE000B04207D14D6923F4405343EA05138D698C
:101FF00043EA05134360C4614968C1630262F0BDEE
:10200000000001400004014030B5026A22F4805211
:102010000262046A4268C3690D6823F4E64343EA36
:1020200005238D6824F4005444EA0534084DA84281
:1020300002D0084DA84204D14D6922F4804242EA00
:1020400085124260C36149680164046230BD0000CA
:10205000000001400004014010B5036A046A24F046
:1020600001040462846924F0F00444EA021423F0B9
:102070000A020A438461026210BD10B5036A23F0AC
:10208000100303628369046A23F4704343EA023253
:1020900024F0A00343EA01118261016210BD10B572
:1020A000806B0021C185C184FFF779FA10BD0168FA
:1020B0000C3151E8002F22F4907241E80023002BEC
:1020C000F5D10168143151E8002F22F0010241E8F6
:1020D0000023002BF5D1016B012909D101680C31D6
:1020E00051E8002F22F0100241E80023002BF5D127
:1020F000202180F83E1000210163704708B590F858
:102100003E10222901D0022008BD82684FF480537E
:102110009A4201D1016921B1816A9A421BD04AB128
:102120000AE00268816A5268C2F308020A80816A82
:10213000891C08E0026972B10268526802F07F02ED
:102140000A70816A491C8162C18D491E0904090C0B
:10215000C18503D019E002685268F1E70168CA68D6
:1021600022F02002CA600168CA6822F48072CA6044
:1021700001684A6922F001024A61202180F83E107C
:10218000016B012903D0FFF73BFC002008BD0021B3
:10219000016301680C3151E8002F22F0100241E880
:1021A0000023002BF5D101680A68D20602D50A681F
:1021B00049680091818DFFF7F1F9E6E770B50446B3
:1021C00000680169E26821F440511143016121690D
:1021D000A068E26908436169114308432168CA683D
:1021E00049F20C639A430243CA6020684169A269BC
:1021F00021F440711143416131492068884202D085
:102200003049884202D1FEF75BFD01E0FEF748FD50
:10221000E2690023192164253226B2F5004F626875
:1022200028D0A0FB0101930F9200FEF71DF8014694
:10223000B0FBF5F06FF01802504301EB800006EBA5
:102240000010B0FBF5F000F0F002B1FBF5F002EB8E
:102250000012B1FBF5F06FF01803584301EB80005A
:1022600006EB0010B0FBF5F000F00F002168104401
:10227000886070BDA0FB010192185B41FDF7F4FF7F
:102280000146B0FBF5F00201B1FBF5F06FF0180369
:10229000584301EB800006EBC000B0FBF5F000F006
:1022A000F80002EB4002B1FBF5F0584301EB80006F
:1022B00006EBC000B0FBF5F000F00700D6E7000029
:1022C00000100140001401402DE9F04198461746E6
:1022D0000E460446069D27E0681C25D02DB1FEF76A
:1022E000A5FBA0EB0800A8421ED920680C3050E8DE
:1022F000001F21F4D07140E80012002AF5D12068B7
:10230000143050E8001F21F0010140E80012002ABB
:10231000F5D1202084F83D0084F83E00002084F8A8
:102320003C000320BDE8F0812068006836EA000028
:1023300004D00020B842CFD00020F3E70120F9E715
:102340000148FFF72DB90000B40000200148FFF755
:1023500027B90000F8000020FEE70907090E002851
:1023600004DB00F1E02080F80014704700F00F005B
:1023700000F1E02080F8141D7047000070B50022C5
:1023800010211248FEF74CFB114C0122510320464C
:10239000FEF746FB012291032046FEF741FB012296
:1023A000D1032046FEF73CFB0122150229460948CD
:1023B000FEF736FB012229462046FEF731FB00F0EE
:1023C00043F8BDE8704000F053B80000000402403C
:1023D0000008024000000240FEF736FBFFF7A4FCB5
:1023E000FFF79AFBFFF76AFBFFF760FCFFF77AFC49
:1023F000FFF73AFCFFF7F6FBFFF7C0FF0A231A4688
:102400000E490F48FFF7FEFA0A231A460B490D48FA
:10241000FFF7F8FA4FF4FA60FEF7F0F907490A23DC
:102420001A460A310748FFF7EDFA04490A231A460B
:102430000A310348FFF7E6FAFEE70000000000203B
:10244000F8000020B400002070B5084E00244FF4BE
:10245000004529463046FEF7DBFA3220FEF7CEF97A
:10246000641CE4B20A2CF4D370BD000000080240E2
:1024700070B500210D48FEF7EFFF0D4E00244FF41C
:10248000FA6500BF6FF01800604305EBC0003060D4
:102490006420FEF7B3F9641CE4B2042CF2D3BDE867
:1024A000704000210148FFF73BB800006C0000209D
:1024B000281800404FF04070E1EE100A7047000607
:1024C00010160006101600000000000000000102B7
:1024D00003040607080900000000010203040000CD
:1024E000002500080000002024000000C4010008AE
:1024F0002425000824000020FC080000E00100085A
:102500000164001E000000000018016400000000CB
:10251000000000500100000010000000000000005A
:042520000024F4009F
:040000050800018965
:00000001FF
